:100000000C9441050C9469050C9469050C946905E0
:100010000C9469050C9469050C9469050C944421B1
:100020000C9469050C9469050C9469050C94690598
:100030000C9469050C9469050C9469050C94690588
:100040000C94962B0C9469050C94F6270C94282894
:100050000C9469050C9469050C9469050C94690568
:100060000C94EC360C94690507634236B79BD8A70D
:100070001A39685618AEBAAB558C1D3CB7CC5763CD
:10008000BD6DEDFD753EF6177231BF000000803F7B
:1000900008000000BE922449123EABAAAA2ABECD97
:1000A000CCCC4C3E00000080BEABAAAAAA3E000009
:1000B0000000BF000000803F000000000008417801
:1000C000D3BB4387D1133D190E3CC3BD4282AD2B38
:1000D0003E68EC8276BED98FE1A93E4C80EFFFBE30
:1000E00001C4FF7F3F0000000000444B62496E3AAC
:1000F000205072657373656420476174696E672070
:10010000426F74746F6D00444B62496E3A205072B6
:1001100065737365642046756E6374696F6E2050F5
:10012000726F6772616D203700444B62496E3A20EE
:10013000507265737365642046756E6374696F6E83
:100140002050726F6772616D203600444B62496EB9
:100150003A20507265737365642046756E637469E6
:100160006F6E2050726F6772616D203500444B6274
:10017000496E3A20507265737365642047617469F3
:100180006E67204C65667400444B62496E3A20509D
:1001900072657373656420476174696E6720526984
:1001A00067687400444B62496E3A205072657373FD
:1001B000656420476174696E6720546F7000444B1A
:1001C00062496E3A20507265737365642046756E9D
:1001D0006374696F6E2050726F6772616D203800B2
:1001E000444B62496E3A20507265737365642052C5
:1001F00069676874204C6F7765722052696768740C
:1002000000444B62496E3A205072657373656420F6
:100210005269676874204C6F77657220426F7474FE
:100220006F6D00444B62496E3A205072657373657E
:1002300064205269676874204C6F776572204C6542
:10024000667400444B62496E3A2050726573736560
:1002500064205269676874204C6F77657220546F10
:100260007000444B62496E3A205072657373656446
:1002700020526967687420557070657220426F74EF
:10028000746F6D00444B62496E3A2050726573730F
:100290006564205269676874205570706572204CDF
:1002A00065667400444B62496E3A20507265737300
:1002B00065642052696768742055707065722052B9
:1002C0006967687400444B62496E3A2050726573E6
:1002D0007365642052696768742055707065722078
:1002E000546F7000444B62496E3A205072657373CC
:1002F0006564204C656674204C6F77657220426F90
:1003000074746F6D00444B62496E3A20507265738D
:10031000736564204C656674204C6F77657220525B
:100320006967687400444B62496E3A205072657385
:10033000736564204C656674204C6F776572205439
:100340006F7000444B62496E3A205072657373655A
:1003500064204C65667420557070657220426F741D
:10036000746F6D00444B62496E3A2050726573732E
:100370006564204C656674204C6F776572204C650F
:10038000667400444B62496E3A205072657373651F
:1003900064204C656674205570706572204C6566EB
:1003A0007400444B62496E3A205072657373656401
:1003B000204C6566742055707065722052696768BC
:1003C0007400444B62496E3A2050726573736564E1
:1003D000204C65667420557070657220546F7000F3
:1003E000444B62496E3A20507265737365642046CF
:1003F000756E6374696F6E2050726F6772616D20E5
:100400003400444B62496E3A2050726573736564E0
:100410002046756E6374696F6E2050726F677261EB
:100420006D203300444B62496E3A205072657373FD
:1004300065642046756E6374696F6E2055736572CE
:100440002050726F6772616D20506C617900444B6F
:1004500062496E3A20507265737365642046756E0A
:100460006374696F6E2050726F6772616D20310026
:10047000444B62496E3A205072657373656420463E
:10048000756E6374696F6E2050726F6772616D2054
:100490003200444B62496E3A205072657373656452
:1004A0002046756E6374696F6E20557365722050B7
:1004B000726F6772616D00444B62496E3A205072F0
:1004C00065737365642046756E6374696F6E205042
:1004D00072652D53657400444B62496E3A20507228
:1004E00065737365642046756E6374696F6E204D25
:1004F000616E75616C204D6F74696F6E00444B6264
:10050000496E20496E697469616C697A656400435B
:1005100068616E6765207370656564004D6F766510
:1005200020476174696E672052746E004D6F766566
:1005300020476174696E672052746E004D6F766556
:1005400020476174696E67206C6E67004D6F766539
:1005500020476174696E67206C6E67004D6F766529
:10056000207269676874206C6F7765722052746EB0
:10057000004D6F7665207269676874206C6F7765CF
:10058000722052746E004D6F7665207269676874D0
:10059000206C6F776572206C6E67004D6F766520FA
:1005A0007269676874206C6F776572206C6E670083
:1005B0004D6F7665206C656674206C6F7765722070
:1005C00052746E004D6F7665206C656674206C6F9A
:1005D0007765722052746E004D6F7665206C65668B
:1005E00074206C6F776572206C6E67004D6F766556
:1005F000206C656674206C6F776572206C6E670086
:100600004D6F7665207269676874207570706572C9
:100610002052746E004D6F76652072696768742091
:1006200075707065722052746E004D6F7665207221
:1006300069676874207570706572206C6E67004D14
:100640006F766520726967687420757070657220B6
:100650006C6E67004D6F7665206C656674207570F2
:100660007065722052746E004D6F7665206C656601
:10067000742075707065722052746E004D6F7665CF
:10068000206C656674207570706572206C6E6700F2
:100690004D6F7665206C656674207570706572208C
:1006A0006C6E67004D616E75616C4D6F74696F6E35
:1006B00020496E697469616C697A6564005072657D
:1006C0005365743A20456E746572205761697446AB
:1006D0006F7250726F6772616D005072655365740E
:1006E00020496E697469616C697A65640055736547
:1006F0007250726F6772616D3A20456E7465722038
:10070000506C61790050726F6772616D6D65642025
:10071000706F736974696F6E7320617420736563A1
:100720006F6E643A20004D6F766520476174696E84
:10073000672052746E004D6F766520476174696E54
:10074000672052746E004D6F766520476174696E44
:1007500067206C6E67004D6F766520476174696E27
:1007600067206C6E67004D6F7665207269676874EC
:10077000206C6F7765722052746E004D6F76652025
:100780007269676874206C6F7765722052746E00AE
:100790004D6F7665207269676874206C6F7765723B
:1007A000206C6E67004D6F766520726967687420F3
:1007B0006C6F776572206C6E67004D6F7665206C8C
:1007C000656674206C6F7765722052746E004D6F91
:1007D0007665206C656674206C6F77657220527444
:1007E0006E004D6F7665206C656674206C6F776562
:1007F00072206C6E67004D6F7665206C65667420A4
:100800006C6F776572206C6E67004D6F7665207235
:10081000696768742075707065722052746E004D3F
:100820006F766520726967687420757070657220D4
:1008300052746E004D6F766520726967687420751A
:1008400070706572206C6E67004D6F7665207269FE
:10085000676874207570706572206C6E67004D6FEC
:100860007665206C656674207570706572205274B0
:100870006E004D6F7665206C6566742075707065CE
:10088000722052746E004D6F7665206C6566742020
:100890007570706572206C6E67004D6F7665206CA8
:1008A000656674207570706572206C6E6700557394
:1008B000657250726F6772616D3A20456E74657231
:1008C000205265636F7264005573657250726F6772
:1008D00072616D3A20456E7465722049646C6500E2
:1008E0005573657250726F6772616D20496E6974DD
:1008F00069616C697A656400444B624F75743A2093
:10090000456E746572205072655365744C45442081
:100910007C427C00444B624F75743A20456E74658E
:1009200072205573657250726F6772616D506C61A1
:10093000794C4544207C447C00444B624F75743AAA
:1009400020456E746572205573657250726F6772C0
:10095000616D5265636F72644C4544207C437C003A
:10096000444B624F75743A20456E746572204D6138
:100970006E75616C4D6F74696F6E4C4544207C419F
:100980007C00444B624F757420496E697469616CD8
:10099000697A6564004D6F746F72734F75743A2095
:1009A000456E74657220416374697665004D6F749D
:1009B0006F724F757420496E697469616C697A65EC
:1009C0006400352E392E380053746172742C205116
:1009D000502D6E616E6F3A200000000000002D0364
:1009E0001403050003E70205D002B7020553023ADB
:1009F000020527021D0202EA018601140000000818
:100A000000020100000304070000000000000000D5
:100A10000102040810204080010204081020010295
:100A20000408102004040404040404040202020262
:100A30000202030303030303000000002300260057
:100A4000290000000000250028002B000000000005
:100A5000240027002A00352E392E38007165706E6B
:100A60000000010202030303030404040404040459
:100A70000471666E0071766E000094245828BD35AE
:100A8000B02411241FBECFEFD8E0DEBFCDBF11E0F0
:100A9000A0E0B1E0EEE3FBE702C005900D92A638BE
:100AA000B107D9F724E0A6E8B1E001C01D92A33C4C
:100AB000B207E1F715E0C0E4D5E004C02197FE01DC
:100AC0000E945A3CCD33D107C9F70E948A280C9462
:100AD000923D0C9400000F931F93CF93DF93FB0183
:100AE000C081D18140E050E06CE073E448835983D9
:100AF0006A837B8385EE90EDA2EDBFE38C839D83BB
:100B0000AE83BF83C281D3810CEE14EC2CED33E4B1
:100B1000088319832A833B8308EA11E72FEC3FEB14
:100B20000C831D832E833F8305E113EE2EEC3BE304
:100B3000088719872A873B870CE619EF24E637EBED
:100B40000C871D872E873F87C481D58148835983B1
:100B50006A837B838C839D83AE83BF83C681D78169
:100B600000E010E020E233E4088319832A833B830A
:100B700004E916E82BEE3FE30C831D832E833F83AD
:100B80000BE214E320EC3BEB088719872A873B87AD
:100B90000BEB1DEC25E337E30C871D872E873F8782
:100BA000C085D1850EE018EC26E034E40883198373
:100BB0002A833B830EED11E928EC3FEB0C831D8368
:100BC0002E833F8305E516E62DE83BE3088719876A
:100BD0002A873B8702EE17E32EE137EB0C871D8750
:100BE0002E873F87C285D385488359836A837B8359
:100BF0008C839D83AE83BF83C485D5850FE313EDBE
:100C00002FE633E4088319832A833B830BE01BEC34
:100C100021EC3FE30C831D832E833F8307E819ED0E
:100C20002DEA3BEB088719872A873B870BE314E9FA
:100C300022E437E30C871D872E873F87C685D7853B
:100C4000488359836A837B838C839D83AE83BF8370
:100C5000C089D18903E819ED28EE33E408831983AC
:100C60002A833B8308E214EA2BEC3FEB0C831D83C1
:100C70002E833F8301E311ED2CE93BE308871987BD
:100C80002A873B8703E110E127E237EB0C871D87BA
:100C90002E873F870288F389E02D4083518362834A
:100CA000738384839583A683B783DF91CF911F914C
:100CB0000F910895089508950895CF93DF93EC015F
:100CC00084E08B8B64EA76E083E593E00E942A2936
:100CD00080E796E09D838C8388E0DF91CF91089533
:100CE000DF92EF92FF920F931F93CF93DF93CDB7D5
:100CF000DEB728970FB6F894DEBF0FBECDBFFC015C
:100D000096819B3071F030F4913009F48FC29A30A3
:100D100041F086C27F019D3039F09E3009F44AC20D
:100D20007FC286E39DE042C283890BEA809F812DCA
:100D300011248695DD24D394D80E87819085A185D2
:100D4000B2858D839E83AF83B887888586FF18C060
:100D500060E976E083E593E00E942A29E091EA01C8
:100D6000F091EB01D70153960C9110E0102F002762
:100D70000160B0E1DB9EC0011124082B192B2EC0AD
:100D800087FF18C06CE776E083E593E00E942A298C
:100D9000E091EA01F091EB01D70153960C9110E03C
:100DA000102F00270160B0E1DB9EC0011124082B49
:100DB000192B30C084FF1AC068E676E083E593E023
:100DC0000E942A29E091EA01F091EB0120E1D29EF4
:100DD00080011124D70153968C91182B20E030E02C
:100DE0000480F581E02D4FE050E01BC085FF1DC061
:100DF00064E576E083E593E00E942A29E091EA0128
:100E0000F091EB01B0E1DB9E80011124D7015396F4
:100E10008C91182B20E030E00480F581E02D40E13A
:100E200050E06FEF8AEE91E009958E8186FF12C047
:100E30006FE376E083E593E00E942A29E091EA01DE
:100E4000F091EB01D70153960C9110E0102F002781
:100E5000066027C087FF12C06AE276E083E593E070
:100E60000E942A29E091EA01F091EB01D701539603
:100E70000C9110E0102F0027066034C084FF1FC0C3
:100E800065E176E083E593E00E942A29E091EA019A
:100E9000F091EB01D70153960C9110E0102F002731
:100EA0000760B0E1DB9EC0011124082B192B20E064
:100EB00030E00480F581E02D4FE050E020C085FF58
:100EC00022C060E076E083E593E00E942A29E09169
:100ED000EA01F091EB01D70153960C9110E0102F2D
:100EE00000270760B0E1DB9EC0011124082B192BFD
:100EF00020E030E00480F581E02D40E150E06FEF2C
:100F00008AEE91E00995888583FF12C06CEE75E04A
:100F100083E593E00E942A29E091EA01F091EB0138
:100F2000D70153960C9110E0102F0027036027C0C3
:100F300080FF12C068ED75E083E593E00E942A29E6
:100F4000E091EA01F091EB01D70153960C9110E08A
:100F5000102F0027036034C081FF1FC064EC75E0D0
:100F600083E593E00E942A29E091EA01F091EB01E8
:100F7000D70153960C9110E0102F00270260B0E1CA
:100F8000DB9EC0011124082B192B20E030E00480E7
:100F9000F581E02D4FE050E020C082FF22C060EBE1
:100FA00075E083E593E00E942A29E091EA01F0913F
:100FB000EB01D70153960C9110E0102F002702602F
:100FC000B0E1DB9EC0011124082B192B20E030E09A
:100FD0000480F581E02D40E150E06FEF8AEE91E072
:100FE00009958E8183FF12C06BE975E083E593E07C
:100FF0000E942A29E091EA01F091EB01D701539672
:101000000C9110E0102F0027046027C080FF12C051
:1010100066E875E083E593E00E942A29E091EA0101
:10102000F091EB01D70153960C9110E0102F00279F
:10103000046034C081FF1FC061E775E083E593E081
:101040000E942A29E091EA01F091EB01D701539621
:101050000C9110E0102F00270560B0E1DB9EC0016D
:101060001124082B192B20E030E00480F581E02DBD
:101070004FE050E020C082FF22C06CE575E083E5C0
:1010800093E00E942A29E091EA01F091EB01D70157
:1010900053960C9110E0102F00270560B0E1DB9E05
:1010A000C0011124082B192B20E030E00480F581C9
:1010B000E02D40E150E06FEF8AEE91E009958D81DF
:1010C00081FF12C06CE475E083E593E00E942A2959
:1010D000E091EA01F091EB01D70153962C9130E0B9
:1010E000322F222728602DC082FF18C06CE375E0E4
:1010F00083E593E00E942A29E091EA01F091EB0157
:10110000D70153962C9130E0322F22272860B0E18E
:10111000DB9E80011124022B132B3AC083FF1FC0DA
:101120006CE275E083E593E00E942A29E091EA01F0
:10113000F091EB01D70153962C9130E0322F22270A
:101140002960B0E1DB9E80011124022B132B20E0EB
:1011500030E00480F581E02D4FE050E020C080FFBA
:1011600022C06CE175E083E593E00E942A29E091BA
:10117000EA01F091EB01D70153960C9110E0102F8A
:1011800000270960B0E1DB9EC0011124082B192B58
:1011900020E030E00480F581E02D40E150E06FEF89
:1011A0008AEE91E0099580E796E0F70195838483C4
:1011B00088E03DC06FE075E083E593E00E942A2956
:1011C000F70187819085A185B28589839A83AB8356
:1011D000BC838B8183FF02C081E019C082FF02C003
:1011E00082E01AC081FF02C083E010C080FF02C00D
:1011F00084E012C0898186FF02C085E007C085FFB8
:1012000002C086E009C084FF04C087E0F701838B39
:10121000CACF87FFC8CF88E0D70153968C93C3CF3E
:101220008CEC9DE29583848380E001C083E0289666
:101230000FB6F894DEBF0FBECDBFDF91CF911F91E7
:101240000F91FF90EF90DF900895CF93DF93EC0123
:1012500024E630E044E650E060E00E94F63160EEC3
:1012600078E083E593E00E942A2987EF9CE09D8344
:101270008C8388E0DF91CF910895CF93DF93EC01C9
:101280002AE030E04AE050E060E00E94F6316AED8A
:1012900076E083E593E00E942A298CE19DE09D831E
:1012A0008C8388E0DF91CF9108950F931F93CF93A4
:1012B000DF938C01EA01FC0145815681C40FD51FE3
:1012C000DF709E0102960E94E132F801D683C58349
:1012D000DF91CF911F910F9108950F931F93CF939B
:1012E000DF938C01EC012296CE010E94CC3340E0CA
:1012F00050E060E772E4CE010E94E033F80116820C
:101300001582CE01DF91CF911F910F910C94DC33A8
:10131000CF93DF93EC0161E087E00E94BC2C61E099
:1013200086E00E94BC2C61E085E00E94BC2C62E853
:1013300079E083E593E00E942A2987E39CE09D837E
:101340008C8388E0DF91CF910895CF93DF93EC01F8
:1013500024E130E044E150E060E00E94F63161E0D9
:1013600083E00E94BC2C61E084E00E94BC2C60E021
:1013700082E00E94BC2C6DEF74E083E593E00E9454
:101380002A2987ED94E29D838C8388E0DF91CF91B9
:101390000895EF92FF920F931F93CF93DF93CDB7F2
:1013A000DEB728970FB6F894DEBF0FBECDBFFC01A5
:1013B00096819A3009F445C27F019B3040F4913008
:1013C00091F0993009F040C287EF9CE0A0C09D30B9
:1013D00091F09E3009F4D6C19C3009F035C2138AD1
:1013E0008CE99FE095C06EEA78E083E593E00E9487
:1013F0002A2983E02FC287819085A185B2858D83BC
:101400009E83AF83B887888586FF86C06AE978E0C7
:1014100083E593E00E942A29E091EA01F091EB0133
:101420000480F581E02D01E216E020E030E04FE09D
:1014300050E06FEF8AEE91E009958E8186FFAAC099
:1014400069E478E083E593E00E942A29E091EA01CB
:10145000F091EB010480F581E02D06E216E020E03A
:1014600030E04FE050E06FEF8AEE91E0099588851B
:1014700083FFCEC066EF77E083E593E00E942A29E0
:10148000E091EA01F091EB010480F581E02D03E2A7
:1014900016E020E030E04FE050E06FEF8AEE91E0A0
:1014A00009958E8183FFF2C065EA77E083E593E0DA
:1014B0000E942A29E091EA01F091EB010480F58174
:1014C000E02D04E216E020E030E04FE050E06FEF66
:1014D0008AEE91E009958D8181FF16C166E577E07E
:1014E00083E593E00E942A29E091EA01F091EB0163
:1014F0000480F581E02D08E216E020E030E04FE0C6
:1015000050E06FEF8AEE91E0099589EC99E0F701E0
:101510009583848388E09EC187FF12C066E878E0E7
:1015200083E593E00E942A29E091EA01F091EB0122
:101530000480F581E02D01E216E020E030E027C0D4
:1015400084FF12C062E778E083E593E00E942A29D5
:10155000E091EA01F091EB010480F581E02D00E2D9
:1015600016E020E030E063CF85FF67CF6EE578E0DE
:1015700083E593E00E942A29E091EA01F091EB01D2
:101580000480F581E02D00E216E020E030E040E14B
:1015900050E04FCF87FF12C064E378E083E593E02B
:1015A0000E942A29E091EA01F091EB010480F58183
:1015B000E02D06E216E020E030E027C084FF12C0F4
:1015C0006FE178E083E593E00E942A29E091EA0147
:1015D000F091EB010480F581E02D07E216E020E0B8
:1015E00030E03FCF85FF43CF6AE078E083E593E0CA
:1015F0000E942A29E091EA01F091EB010480F58133
:10160000E02D07E216E020E030E040E150E02BCF93
:1016100080FF12C062EE77E083E593E00E942A2902
:10162000E091EA01F091EB010480F581E02D03E205
:1016300016E020E030E027C081FF12C06EEC77E0BA
:1016400083E593E00E942A29E091EA01F091EB0101
:101650000480F581E02D02E216E020E030E01BCFAF
:1016600082FF1FCF6AEB77E083E593E00E942A298F
:10167000E091EA01F091EB010480F581E02D02E2B6
:1016800016E020E030E040E150E007CF80FF12C0DC
:1016900060E977E083E593E00E942A29E091EA017E
:1016A000F091EB010480F581E02D04E216E020E0EA
:1016B00030E027C081FF12C06BE777E083E593E05D
:1016C0000E942A29E091EA01F091EB010480F58162
:1016D000E02D05E216E020E030E0F7CE82FFFBCE01
:1016E00066E677E083E593E00E942A29E091EA012B
:1016F000F091EB010480F581E02D05E216E020E099
:1017000030E040E150E0E3CE82FF12C066E477E0D3
:1017100083E593E00E942A29E091EA01F091EB0130
:101720000480F581E02D08E216E020E030E027C0DB
:1017300083FF12C066E377E083E593E00E942A29E5
:10174000E091EA01F091EB010480F581E02D09E2DE
:1017500016E020E030E0D3CE80FFD7CE66E277E01F
:1017600083E593E00E942A29E091EA01F091EB01E0
:101770000480F581E02D09E216E020E030E040E150
:1017800050E0BFCE87819085A185B28589839A83F9
:10179000AB83BC838B8183FD1DC082FD0FC081FDA7
:1017A0000FC080FD0FC0898186FD0EC085FD0EC073
:1017B00084FD0EC087FF0EC017E00DC011E00BC006
:1017C00012E009C013E007C014E005C015E003C033
:1017D00016E001C010E065E077E083E593E00E9449
:1017E000E1284AE050E0612F83E593E00E945B2A04
:1017F000F701E10FF11D8091FD01848B8091FE01C5
:10180000848F8091FF0184A38091000284A780913E
:10181000010284AB8091020284AFDF01AC5BBF4F59
:10182000809103028C931896809104028C931896F1
:10183000809105028C93E45AFF4F809106028083C9
:1018400064CE87EF9CE064CE8CEC9DE2F70195833B
:10185000848380E028960FB6F894DEBF0FBECDBF1C
:10186000DF91CF911F910F91FF90EF900895FC01B0
:1018700086818A30D1F08B30D9F08130F9F460E67E
:1018800079E083E593E00E942A2960E086E00E94E7
:10189000F82C22E041E067E085E00E948C2D61E0B9
:1018A00086E00E94F82C83E008958AEC9CE002C058
:1018B00084E69CE09583848388E008958CEC9DE227
:1018C0009583848380E00895FC018681893001F14D
:1018D000C0F4813031F569E379E083E593E00E945B
:1018E0002A2960E086E00E94F82C28E041E067E0C9
:1018F00085E00E948C2D61E086E00E94F82C83E058
:1019000008958A3041F08C3061F487E99CE005C08D
:1019100087E39CE002C08AEC9CE09583848388E0A6
:1019200008958CEC9DE29583848380E00895FC010A
:101930008681893001F1C0F4813031F564E179E0CC
:1019400083E593E00E942A2960E086E00E94F82C5B
:1019500024E041E067E085E00E948C2D61E086E0B4
:101960000E94F82C83E008958A3041F08B3061F4B6
:1019700084E69CE005C087E39CE002C08AEC9CE022
:101980009583848388E008958CEC9DE2958384831D
:1019900080E00895FC0186818930D1F08B30D9F048
:1019A0008130F9F468EF78E083E593E00E942A291A
:1019B00060E086E00E94F82C21E041E067E085E0ED
:1019C0000E948C2D61E086E00E94F82C83E008954F
:1019D00087E39CE002C084E69CE09583848388E0F2
:1019E00008958CEC9DE29583848380E00895CF93E5
:1019F000DF93FC018681813079F08B30A9F4DF011F
:101A0000549680E5ED0119928A95E9F789EC99E001
:101A10009583848388E00DC068EC78E083E593E0EB
:101A20000E942A2983E005C08CEC9DE29583848383
:101A300080E0DF91CF910895FC018681813041F0F3
:101A40008A3071F480E59DE09583848388E0089571
:101A500066E071E083E593E00E944E2983E00895FB
:101A60008CEC9DE29583848380E00895FC0186815F
:101A7000813041F0893071F480E796E0958384836A
:101A800088E0089569E171E083E593E00E944E29C2
:101A900083E008958CEC9DE29583848380E0089533
:101AA0000F931F93CF93DF9300D000D0CDB7DEB755
:101AB000FC0186818930A9F078F4813009F047C0B3
:101AC0008F016DEB76E083E593E00E942A29F8010F
:101AD000158A148A83E040C08B3019F08E3021F0D3
:101AE00036C08CE19DE02FC087819085A185B285AD
:101AF00089839A83AB83BC838B8183FF02C081E09F
:101B00001CC082FF02C082E018C081FF02C083E0D7
:101B100014C080FF02C084E010C0898186FF02C02B
:101B200085E00BC085FF02C086E007C084FF02C0CD
:101B300087E003C087FF02C088E0838B158A148A80
:101B4000168A86E090E19583848388E005C08CEC5A
:101B50009DE29583848380E00F900F900F900F900B
:101B6000DF91CF911F910F910895EF92FF920F9304
:101B70001F93CF93DF93CDB7DEB72C970FB6F894B2
:101B8000DEBF0FBECDBFFC018681813049F08430BD
:101B900009F0DBC087ED94E29583848388E0BFC1C0
:101BA0007F01038914892589368909871A872B873C
:101BB0003C878B8586FF3DC0E0910003F0910103D7
:101BC0000480F581E02D00E010E0980149E050E04C
:101BD0006FEF80E093E00995E091D002F091D1029F
:101BE0000480F581E02D00E010E0980149E050E02C
:101BF0006FEF80ED92E00995E0915302F09154026D
:101C00000480F581E02D00E010E0980149E050E00B
:101C10006FEF83E592E00995E0912702F0912802A9
:101C20000480F581E02D00E010E0980149E050E0EB
:101C300028C185FF3DC0E0910003F09101030480BD
:101C4000F581E02D00E010E098014AE050E06FEFF0
:101C500080E093E00995E091D002F091D1020480F8
:101C6000F581E02D00E010E098014AE050E06FEFD0
:101C700080ED92E00995E0915302F09154020480C6
:101C8000F581E02D00E010E098014AE050E06FEFB0
:101C900083E592E00995E0912702F0912802048003
:101CA000F581E02D00E010E098014AE050E0E9C045
:101CB00084FF3DC0E0910003F09101030480F581B1
:101CC000E02D00E010E098014BE050E06FEF80E085
:101CD00093E00995E091D002F091D1020480F58162
:101CE000E02D00E010E098014BE050E06FEF80ED58
:101CF00092E00995E0915302F09154020480F5813D
:101D0000E02D00E010E098014BE050E06FEF83E53C
:101D100092E00995E0912702F09128020480F58174
:101D2000E02D00E010E098014BE050E0AAC00D83E8
:101D30001E832F833887988591110DC09E81911144
:101D40000AC09D819F7039F44CC08CEC9DE2958354
:101D5000848380E0E4C0E0910003F09101030480FB
:101D6000F581E02D4DE050E06FEF80E093E00995C4
:101D7000E091D002F091D102D70153960D911D91BF
:101D80002D913C9156970480F581E02D4DE050E077
:101D90006FEF80ED92E00995E0915302F0915402CB
:101DA000D70153960D911D912D913C91569704802A
:101DB000F581E02D4DE050E06FEF83E592E009956D
:101DC000E0912702F0912802D70153960D911D91C1
:101DD0002D913C9156970480F581E02D4DE050E027
:101DE00050C009831A832B833C839B819F7021F40D
:101DF0009981907F09F44AC0E0910003F0910103BA
:101E00000480F581E02D4EE050E06FEF80E093E03C
:101E10000995E091D002F091D102D70153960D912E
:101E20001D912D913C9156970480F581E02D4EE057
:101E300050E06FEF80ED92E00995E0915302F09150
:101E40005402D70153960D911D912D913C915697B7
:101E50000480F581E02D4EE050E06FEF83E592E0E5
:101E60000995E0912702F0912802D70153960D9130
:101E70001D912D913C9156970480F581E02D4EE007
:101E800050E06FEF87E292E0099548C087FF46C0B7
:101E9000E0910003F09101030480F581E02D4CE016
:101EA00050E06FEF80E093E00995E091D002F0916F
:101EB000D102D70153960D911D912D913C915697CA
:101EC0000480F581E02D4CE050E06FEF80ED92E072
:101ED0000995E0915302F0915402D70153960D9168
:101EE0001D912D913C9156970480F581E02D4CE099
:101EF00050E06FEF83E592E00995E0912702F091C1
:101F00002802D70153960D911D912D913C91569722
:101F10000480F581E02D4CE050E0B3CF83E02C96B7
:101F20000FB6F894DEBF0FBECDBFDF91CF911F91EA
:101F30000F91FF90EF900895EF92FF920F931F93F0
:101F4000CF93DF93FC018681893009F44DC040F4C2
:101F5000813079F0843009F04DC08CE99FE046C0B3
:101F60008A3009F441C08B3009F044C089EC99E013
:101F70003DC0EF016DEE76E083E593E00E942A29F3
:101F8000E12CF12CE091EA01F091EB018B89D70172
:101F900093E0AA0FBB1F9A95E1F7AC0FBD1FA80FE6
:101FA000B11D54960C9110E0102F002700620E29ED
:101FB0001F2920E030E00480F581E02D41E150E070
:101FC0006FEF8AEE91E009958FEFE81AF80A8AE040
:101FD000E816F104B9F68B898F5F883010F48B8B8B
:101FE00001C01B8A83E00BC087EF9CE0958384834C
:101FF00088E005C08CEC9DE29583848380E0DF91CE
:10200000CF911F910F91FF90EF900895CF92DF92A3
:10201000EF92FF920F931F93CF93DF9300D000D0E6
:10202000CDB7DEB7FC018681893011F40C94E8202D
:1020300040F4813099F0843011F40C94F1200C9428
:10204000EB208B3011F40C94E82010F40C94F42065
:102050008E3011F40C94B5200C94EB207F01838911
:10206000813009F01BC284899589009709F0A5C0C9
:10207000E091EA01F091EB010480F581E02D01E2AD
:1020800014E620E030E041E150E06FEF8AEE91E0AD
:102090000995E091EA01F091EB010480F581E02DD2
:1020A00000E214E620E030E041E150E06FEF8AEE1C
:1020B00091E00995E091EA01F091EB010480F5814E
:1020C000E02D06E214E620E030E041E150E06FEF61
:1020D0008AEE91E00995E091EA01F091EB0104802C
:1020E000F581E02D07E214E620E030E041E150E028
:1020F0006FEF8AEE91E00995E091EA01F091EB0132
:102100000480F581E02D03E214E620E030E041E1B7
:1021100050E06FEF8AEE91E00995E091EA01F091CD
:10212000EB010480F581E02D02E214E620E030E0CE
:1021300041E150E06FEF8AEE91E00995E091EA010C
:10214000F091EB010480F581E02D04E214E620E03B
:1021500030E041E150E06FEF8AEE91E00995E091C7
:10216000EA01F091EB010480F581E02D05E214E62F
:1021700020E030E041E150E06FEF8AEE91E0099518
:10218000E091EA01F091EB010480F581E02D08E295
:1021900010E020E030E041E150E06FEF8AEE91E0A6
:1021A0000995E091EA01F091EB010480F581E02DC1
:1021B00009E21FE720E030E085C00F9709F088C0F2
:1021C000E091EA01F091EB010480F581E02D01E25C
:1021D0001FE720E030E041E150E06FEF8AEE91E050
:1021E0000995E091EA01F091EB010480F581E02D81
:1021F00000E21FE720E030E041E150E06FEF8AEEBF
:1022000091E00995E091EA01F091EB010480F581FC
:10221000E02D06E21FE720E030E041E150E06FEF03
:102220008AEE91E00995E091EA01F091EB010480DA
:10223000F581E02D07E21FE720E030E041E150E0CA
:102240006FEF8AEE91E00995E091EA01F091EB01E0
:102250000480F581E02D03E21FE720E030E041E15A
:1022600050E06FEF8AEE91E00995E091EA01F0917C
:10227000EB010480F581E02D02E21FE720E030E071
:1022800041E150E06FEF8AEE91E00995E091EA01BB
:10229000F091EB010480F581E02D04E21FE720E0DE
:1022A00030E041E150E06FEF8AEE91E00995E09176
:1022B000EA01F091EB010480F581E02D05E21FE7D2
:1022C00020E030E041E150E06FEF8AEE91E00995C7
:1022D000D70154968D919C9155978031910508F4C2
:1022E000D6C0D9C08E31910511F40C94D61E863417
:1022F000910511F40C94D61E8E36910511F40C94B0
:10230000D61E8639910511F40C94D61E8E3B91058C
:1023100011F40C94D61E863E910511F40C94D61E31
:102320008E30B1E09B0711F40C94D61E8633E1E0A9
:102330009E0711F40C94D61E8E35F1E09F0711F420
:102340000C94D61E863821E0920711F40C94D61E08
:102350008233910511F40C94261F8A35910511F4EE
:102360000C94261F8238910511F40C94261F8A3A8A
:10237000910511F40C94261F823D910511F40C94E3
:10238000261F8A3F910511F40C94261F8232A1E08A
:102390009A0711F40C94261F8A34B1E09B0711F4BC
:1023A0000C94261F8237E1E09E0711F40C94261F3F
:1023B0008A39914011F40C94261FD70154968D91BF
:1023C0009C9155978C32B1E09B0711F00C947D1FC6
:1023D000E091EA01F091EB010480F581E02D00E24B
:1023E0001FEF20E030E041E150E06FEF8AEE91E036
:1023F0000995E091EA01F091EB010480F581E02D6F
:1024000007E21FEF20E030E041E150E06FEF8AEE9D
:1024100091E00995E091EA01F091EB010480F581EA
:10242000E02D02E21FEF20E030E041E150E06FEFED
:102430008AEE91E00995E091EA01F091EB010480C8
:10244000F581E02D05E21FEF20E030E041E150E0B2
:102450006FEF8AEE91E00995E091EA01F091EB01CE
:102460000480F581E02D09E21FEF20E030E041E13A
:1024700050E06FEF8AEE91E00995D70154968D9167
:102480009C9155978E3AB1E09B0709F404C60196DA
:10249000F701958B848B83E00C94F920823009F04E
:1024A0003EC184899589009709F0A5C0E091EA01B1
:1024B000F091EB010480F581E02D01E214E620E0CB
:1024C00030E041E150E06FEF8AEE91E00995E09154
:1024D000EA01F091EB010480F581E02D00E214E6C1
:1024E00020E030E041E150E06FEF8AEE91E00995A5
:1024F000E091EA01F091EB010480F581E02D06E224
:1025000014E620E030E041E150E06FEF8AEE91E028
:102510000995E091EA01F091EB010480F581E02D4D
:1025200007E214E620E030E041E150E06FEF8AEE90
:1025300091E00995E091EA01F091EB010480F581C9
:10254000E02D03E214E620E030E041E150E06FEFDF
:102550008AEE91E00995E091EA01F091EB010480A7
:10256000F581E02D02E214E620E030E041E150E0A8
:102570006FEF8AEE91E00995E091EA01F091EB01AD
:102580000480F581E02D04E216E420E030E041E132
:1025900050E06FEF8AEE91E00995E091EA01F09149
:1025A000EB010480F581E02D05E216E420E030E047
:1025B00041E150E06FEF8AEE91E00995E091EA0188
:1025C000F091EB010480F581E02D08E210E020E0BD
:1025D00030E041E150E06FEF8AEE91E00995E09143
:1025E000EA01F091EB010480F581E02D09E21FE79B
:1025F00020E030E085C00F9709F088C0E091EA0143
:10260000F091EB010480F581E02D01E217EA20E072
:1026100030E041E150E06FEF8AEE91E00995E09102
:10262000EA01F091EB010480F581E02D00E217EA68
:1026300020E030E041E150E06FEF8AEE91E0099553
:10264000E091EA01F091EB010480F581E02D06E2D2
:1026500015E720E030E041E150E06FEF8AEE91E0D5
:102660000995E091EA01F091EB010480F581E02DFC
:1026700007E215E720E030E041E150E06FEF8AEE3D
:1026800091E00995E091EA01F091EB010480F58178
:10269000E02D03E219E820E030E041E150E06FEF87
:1026A0008AEE91E00995E091EA01F091EB01048056
:1026B000F581E02D02E219E820E030E041E150E050
:1026C0006FEF8AEE91E00995E091EA01F091EB015C
:1026D0000480F581E02D04E217E520E030E041E1DF
:1026E00050E06FEF8AEE91E00995E091EA01F091F8
:1026F000EB010480F581E02D05E217E520E030E0F4
:1027000041E150E06FEF8AEE91E00995F70184898D
:1027100095898031910510F40C94251EBCCE833030
:1027200009F056C384899589009709F0A5C0E09106
:10273000EA01F091EB010480F581E02D01E21FE751
:1027400020E030E041E150E06FEF8AEE91E0099542
:10275000E091EA01F091EB010480F581E02D00E2C7
:102760001FE720E030E041E150E06FEF8AEE91E0BA
:102770000995E091EA01F091EB010480F581E02DEB
:1027800006E21FE720E030E041E150E06FEF8AEE23
:1027900091E00995E091EA01F091EB010480F58167
:1027A000E02D07E21FE720E030E041E150E06FEF6D
:1027B0008AEE91E00995E091EA01F091EB01048045
:1027C000F581E02D03E21FE720E030E041E150E039
:1027D0006FEF8AEE91E00995E091EA01F091EB014B
:1027E0000480F581E02D02E21FE720E030E041E1C6
:1027F00050E06FEF8AEE91E00995E091EA01F091E7
:10280000EB010480F581E02D04E21FE720E030E0D9
:1028100041E150E06FEF8AEE91E00995E091EA0125
:10282000F091EB010480F581E02D05E21FE720E047
:1028300030E041E150E06FEF8AEE91E00995E091E0
:10284000EA01F091EB010480F581E02D08E210E04F
:1028500020E030E041E150E06FEF8AEE91E0099531
:10286000E091EA01F091EB010480F581E02D09E2AD
:102870001FE720E030E09BC2BC016451710968325F
:10288000710508F040C1C090EA01D090EB0180E0F2
:1028900090E00E942C3920E030E04EEF52E40E949C
:1028A0001A380E94FD38062F10E0102F0027016112
:1028B00020E030E0D6011496ED91FC91159741E1AE
:1028C00050E06FEF8AEE91E00995C090EA01D09058
:1028D000EB01F701648975896451710980E090E02A
:1028E0000E942C3920E030E04EEF52E40E941A386A
:1028F0000E94FD38062F10E0102F0027006120E015
:1029000030E0D6011496ED91FC91159741E150E02D
:102910006FEF8AEE91E00995C090EA01D090EB014B
:10292000F701648975896451710980E090E00E9423
:102930002C3920E030E040E85EE30E943B3A9B0106
:10294000AC0160E070E08EEF92E40E9419380E94C2
:10295000FD38062F10E0102F0027066120E030E040
:10296000D6011496ED91FC91159741E150E06FEF7F
:102970008AEE91E00995C090EA01D090EB01F70151
:10298000648975896451710980E090E00E942C3956
:1029900020E030E040E85EE30E943B3A9B01AC015E
:1029A00060E070E08EEF92E40E9419380E94FD38DA
:1029B000062F10E0102F0027076120E030E0D6013D
:1029C0001496ED91FC91159741E150E06FEF8AEE7E
:1029D00091E00995C090EA01D090EB01F70164897C
:1029E00075896451710980E090E00E942C3920E0E3
:1029F00030E040E85EE30E943B3A20E030E04EEFFA
:102A000052E40E941A380E94FD38062F10E0102F61
:102A10000027036120E030E0D6011496ED91FC918F
:102A2000159741E150E06FEF8AEE91E00995C09073
:102A3000EA01D090EB01F70164897589645171094D
:102A400080E090E00E942C3920E030E040E85EE336
:102A50000E943B3A20E030E04EEF52E40E941A38E8
:102A60000E94FD38062F10E0102F0027026120E0A1
:102A700030E0D6011496ED91FC91159741E150E0BC
:102A80006FEF8AEE91E00995C090EA01D090EB01DA
:102A9000F701648975896451710980E090E00E94B2
:102AA0002C399B01AC0160E070E08EEF92E40E9453
:102AB00019380E94FD38062F10E0102F00270461FE
:102AC00020E030E0D6011496ED91FC91159741E19C
:102AD00050E06FEF8AEE91E00995C090EA01D09046
:102AE000EB01F701648975896451710980E090E018
:102AF0000E942C399B01AC0160E070E08EEF92E403
:102B00000E94193846C1BC016654710968327105CA
:102B100008F053C1C090EA01D090EB0180E090E052
:102B20000E942C399B01AC0160E070E087E293E4E5
:102B30000E9419380E94FD38062F10E0102F002740
:102B4000016120E030E0D6011496ED91FC911597DB
:102B500041E150E06FEF8AEE91E00995C090EA0103
:102B6000D090EB01F701648975896654710980E0A2
:102B700090E00E942C399B01AC0160E070E087E29C
:102B800093E40E9419380E94FD38062F10E0102FA0
:102B90000027006120E030E0D6011496ED91FC9111
:102BA000159741E150E06FEF8AEE91E00995C090F2
:102BB000EA01D090EB01F7016489758966547109C7
:102BC00080E090E00E942C3920E030E040E85EE3B5
:102BD0000E943B3A20E030E04AEE52E40E941A386C
:102BE0000E94FD38062F10E0102F0027066120E01C
:102BF00030E0D6011496ED91FC91159741E150E03B
:102C00006FEF8AEE91E00995C090EA01D090EB0158
:102C1000F701648975896654710980E090E00E942B
:102C20002C3920E030E040E85EE30E943B3A20E0AF
:102C300030E04AEE52E40E941A380E94FD38062F16
:102C400010E0102F0027076120E030E0D601149635
:102C5000ED91FC91159741E150E06FEF8AEE91E024
:102C60000995C090EA01D090EB01F701648975895C
:102C70006654710980E090E00E942C3920E030E039
:102C800040E85EE30E943B3A9B01AC0160E070E0EB
:102C900089E093E40E9419380E94FD38062F10E065
:102CA000102F0027036120E030E0D6011496ED914B
:102CB000FC91159741E150E06FEF8AEE91E00995A4
:102CC000C090EA01D090EB01F701648975896654E0
:102CD000710980E090E00E942C3920E030E040E86B
:102CE0005EE30E943B3A9B01AC0160E070E089E04A
:102CF00093E40E9419380E94FD38062F10E0102F2F
:102D00000027026120E030E0D6011496ED91FC919D
:102D1000159741E150E06FEF8AEE91E00995C09080
:102D2000EA01D090EB01F701648975896654710955
:102D300080E090E00E942C3920E030E04EEA52E43E
:102D40000E941A380E94FD38062F10E0102F00272D
:102D5000046120E030E0D6011496ED91FC911597C6
:102D600041E150E06FEF8AEE91E00995C090EA01F1
:102D7000D090EB01F701648975896654710980E090
:102D800090E00E942C3920E030E04EEA52E40E94AC
:102D90001A380E94FD38062F10E0102F0027056119
:102DA00020E030E0D6011496ED91FC91159741E1B9
:102DB00050E06FEF8AEE91E00995F70184899589DB
:102DC0008037910510F40C94AD2084E190E061CB44
:102DD000843009F063C184899589009709F0A5C002
:102DE000E091EA01F091EB010480F581E02D01E230
:102DF00012E320E030E041E150E06FEF8AEE91E035
:102E00000995E091EA01F091EB010480F581E02D54
:102E100000E21FE720E030E041E150E06FEF8AEE92
:102E200091E00995E091EA01F091EB010480F581D0
:102E3000E02D06E212E320E030E041E150E06FEFE8
:102E40008AEE91E00995E091EA01F091EB010480AE
:102E5000F581E02D07E21FE720E030E041E150E09E
:102E60006FEF8AEE91E00995E091EA01F091EB01B4
:102E70000480F581E02D03E212E320E030E041E13F
:102E800050E06FEF8AEE91E00995E091EA01F09150
:102E9000EB010480F581E02D02E21FE720E030E045
:102EA00041E150E06FEF8AEE91E00995E091EA018F
:102EB000F091EB010480F581E02D04E212E320E0C3
:102EC00030E041E150E06FEF8AEE91E00995E0914A
:102ED000EA01F091EB010480F581E02D05E21FE7A6
:102EE00020E030E041E150E06FEF8AEE91E009959B
:102EF000E091EA01F091EB010480F581E02D08E218
:102F000012E320E030E041E150E06FEF8AEE91E023
:102F10000995E091EA01F091EB010480F581E02D43
:102F200009E21FE720E030E0A6C08E31910509F0EC
:102F300050C0E091EA01F091EB010480F581E02DB1
:102F400001E11FEF20E030E041E150E06FEF8AEE59
:102F500091E00995E091EA01F091EB010480F5819F
:102F6000E02D06E11FEF20E030E041E150E06FEF9F
:102F70008AEE91E00995E091EA01F091EB0104807D
:102F8000F581E02D03E11FEF20E030E041E150E06A
:102F90006FEF8AEE91E00995E091EA01F091EB0183
:102FA0000480F581E02D04E11FEF20E030E041E1F5
:102FB00050E06FEF8AEE91E00995E091EA01F0911F
:102FC000EB010480F581E02D08E11FEF20E030E007
:102FD00052C0C29709F055C0E091EA01F091EB01AF
:102FE0000480F581E02D01E110E020E030E041E1D6
:102FF00050E06FEF8AEE91E00995E091EA01F091DF
:10300000EB010480F581E02D06E110E020E030E0E6
:1030100041E150E06FEF8AEE91E00995E091EA011D
:10302000F091EB010480F581E02D03E110E020E058
:1030300030E041E150E06FEF8AEE91E00995E091D8
:10304000EA01F091EB010480F581E02D04E110E04C
:1030500020E030E041E150E06FEF8AEE91E0099529
:10306000E091EA01F091EB010480F581E02D08E1A7
:1030700010E020E030E041E150E06FEF8AEE91E0B7
:103080000995D70154968D919C9155978634910559
:1030900011F00C94AD208EE190E0FAC9853009F072
:1030A0002CC284899589009709F0A5C0E091EA01B6
:1030B000F091EB010480F581E02D01E210E020E0C9
:1030C00030E041E150E06FEF8AEE91E00995E09148
:1030D000EA01F091EB010480F581E02D00E21FE7A9
:1030E00020E030E041E150E06FEF8AEE91E0099599
:1030F000E091EA01F091EB010480F581E02D06E218
:1031000010E020E030E041E150E06FEF8AEE91E026
:103110000995E091EA01F091EB010480F581E02D41
:1031200007E21FE720E030E041E150E06FEF8AEE78
:1031300091E00995E091EA01F091EB010480F581BD
:10314000E02D03E210E020E030E041E150E06FEFDD
:103150008AEE91E00995E091EA01F091EB0104809B
:10316000F581E02D02E21FE720E030E041E150E090
:103170006FEF8AEE91E00995E091EA01F091EB01A1
:103180000480F581E02D04E210E020E030E041E130
:1031900050E06FEF8AEE91E00995E091EA01F0913D
:1031A000EB010480F581E02D05E21FE720E030E02F
:1031B00041E150E06FEF8AEE91E00995E091EA017C
:1031C000F091EB010480F581E02D08E210E020E0B1
:1031D00030E041E150E06FEF8AEE91E00995E09137
:1031E000EA01F091EB010480F581E02D09E21FE78F
:1031F00020E030E06EC18E31910581F0863491057A
:1032000069F08E36910551F08639910539F08E3B83
:10321000910521F0863E910509F050C0E091EA0148
:10322000F091EB010480F581E02D01E11FEF20E03A
:1032300030E041E150E06FEF8AEE91E00995E091D6
:10324000EA01F091EB010480F581E02D06E11FEF2A
:1032500020E030E041E150E06FEF8AEE91E0099527
:10326000E091EA01F091EB010480F581E02D03E1AA
:103270001FEF20E030E041E150E06FEF8AEE91E097
:103280000995E091EA01F091EB010480F581E02DD0
:1032900004E11FEF20E030E041E150E06FEF8AEE03
:1032A00091E00995E091EA01F091EB010480F5814C
:1032B000E02D08E11FEF20E030E00BC18E30F1E09F
:1032C0009F0709F050C0E091EA01F091EB01048002
:1032D000F581E02D01E21FEF20E030E041E150E018
:1032E0006FEF8AEE91E00995E091EA01F091EB0130
:1032F0000480F581E02D06E21FEF20E030E041E19F
:1033000050E06FEF8AEE91E00995E091EA01F091CB
:10331000EB010480F581E02D03E21FEF20E030E0B7
:1033200041E150E06FEF8AEE91E00995E091EA010A
:10333000F091EB010480F581E02D04E21FEF20E025
:1033400030E041E150E06FEF8AEE91E00995E091C5
:10335000EA01F091EB010480F581E02D08E21FEF16
:1033600020E030E0B6C08233910581F08A359105C6
:1033700069F08238910551F08A3A910539F0823D21
:10338000910521F08A3F910509F050C0E091EA01D2
:10339000F091EB010480F581E02D01E110E020E0E7
:1033A00030E041E150E06FEF8AEE91E00995E09165
:1033B000EA01F091EB010480F581E02D06E110E0D7
:1033C00020E030E041E150E06FEF8AEE91E00995B6
:1033D000E091EA01F091EB010480F581E02D03E139
:1033E00010E020E030E041E150E06FEF8AEE91E044
:1033F0000995E091EA01F091EB010480F581E02D5F
:1034000004E110E020E030E041E150E06FEF8AEEAF
:1034100091E00995E091EA01F091EB010480F581DA
:10342000E02D08E110E020E030E053C0823C914004
:1034300009F055C0E091EA01F091EB010480F581BB
:10344000E02D01E210E020E030E041E150E06FEFDC
:103450008AEE91E00995E091EA01F091EB01048098
:10346000F581E02D06E210E020E030E041E150E09F
:103470006FEF8AEE91E00995E091EA01F091EB019E
:103480000480F581E02D03E210E020E030E041E12E
:1034900050E06FEF8AEE91E00995E091EA01F0913A
:1034A000EB010480F581E02D04E210E020E030E043
:1034B00041E150E06FEF8AEE91E00995E091EA0179
:1034C000F091EB010480F581E02D08E210E020E0AE
:1034D00030E041E150E06FEF8AEE91E00995D701CD
:1034E00054968D919C915597803EB1E09B0709F0D1
:1034F00034C68EE690E00C944812863009F0A8C3DA
:1035000084899589009709F0A5C0E091EA01F091BE
:10351000EB010480F581E02D01E21FE720E030E0BF
:1035200041E150E06FEF8AEE91E00995E091EA0108
:10353000F091EB010480F581E02D00E21FE720E02F
:1035400030E041E150E06FEF8AEE91E00995E091C3
:10355000EA01F091EB010480F581E02D06E21FE71E
:1035600020E030E041E150E06FEF8AEE91E0099514
:10357000E091EA01F091EB010480F581E02D07E292
:103580001FE720E030E041E150E06FEF8AEE91E08C
:103590000995E091EA01F091EB010480F581E02DBD
:1035A00003E21FE720E030E041E150E06FEF8AEEF8
:1035B00091E00995E091EA01F091EB010480F58139
:1035C000E02D02E21FE720E030E041E150E06FEF44
:1035D0008AEE91E00995E091EA01F091EB01048017
:1035E000F581E02D04E21FE720E030E041E150E00A
:1035F0006FEF8AEE91E00995E091EA01F091EB011D
:103600000480F581E02D05E21FE720E030E041E194
:1036100050E06FEF8AEE91E00995E091EA01F091B8
:10362000EB010480F581E02D08E212E320E030E0B8
:1036300041E150E06FEF8AEE91E00995E091EA01F7
:10364000F091EB010480F581E02D09E21FE720E015
:1036500030E0EEC2BC016E5171096431710508F0B1
:103660006FC1C090EA01D090EB0180E090E00E9431
:103670002C399B01AC010E941A3820E030E04EEF5B
:1036800052E40E941A380E94FD38062F10E0102FD5
:103690000027016120E030E0D6011496ED91FC9105
:1036A000159741E150E06FEF8AEE91E00995C090E7
:1036B000EA01D090EB01F701648975896E517109B7
:1036C00080E090E00E942C399B01AC010E941A38E6
:1036D00020E030E04EEF52E40E941A380E94FD389C
:1036E000062F10E0102F0027006120E030E0D60107
:1036F0001496ED91FC91159741E150E06FEF8AEE41
:1037000091E00995C090EA01D090EB01F70164893E
:1037100075896E51710980E090E00E942C3920E09B
:1037200030E040E05FE30E943B3A9B01AC0160E087
:1037300070E08EEF92E40E9419380E94FD38062F47
:1037400010E0102F0027066120E030E0D60114962B
:10375000ED91FC91159741E150E06FEF8AEE91E019
:103760000995C090EA01D090EB01F7016489758951
:103770006E51710980E090E00E942C3920E030E029
:1037800040E05FE30E943B3A9B01AC0160E070E0E7
:103790008EEF92E40E9419380E94FD38062F10E047
:1037A000102F0027076120E030E0D6011496ED913C
:1037B000FC91159741E150E06FEF8AEE91E0099599
:1037C000C090EA01D090EB01F701648975896E51D0
:1037D000710980E090E00E942C3920E030E040E068
:1037E0005FE30E943B3A20E030E04EEF52E40E945B
:1037F0001A380E94FD38062F10E0102F00270361B1
:1038000020E030E0D6011496ED91FC91159741E14E
:1038100050E06FEF8AEE91E00995C090EA01D090F8
:10382000EB01F701648975896E51710980E090E0C0
:103830000E942C3920E030E040E05FE30E943B3AF8
:1038400020E030E04EEF52E40E941A380E94FD382A
:10385000062F10E0102F0027026120E030E0D60193
:103860001496ED91FC91159741E150E06FEF8AEECF
:1038700091E00995C090EA01D090EB01F7016489CD
:1038800075896E51710980E090E00E942C399B018E
:10389000AC010E941A389B01AC0160E070E08EEF31
:1038A00092E40E9419380E94FD38062F10E0102F74
:1038B0000027046120E030E0D6011496ED91FC91E0
:1038C000159741E150E06FEF8AEE91E00995C090C5
:1038D000EA01D090EB01F701648975896E51710995
:1038E00080E090E00E942C399B01AC010E941A38C4
:1038F0009B01AC0160E070E08EEF92E40E94193809
:103900000E94FD38062F10E0102F0027056120E0EF
:1039100030E0D6011496ED91FC91159741E150E00D
:103920006FEF8AEE91E00995E091EA01F091EB01E9
:103930000480F581E02D08E11FEF20E030E078C140
:103940009C01235331092331310508F077C1C09020
:10395000EA01D090EB01BC016253710980E090E074
:103960000E942C399B01AC010E941A389B01AC01CA
:1039700060E070E087E293E40E9419380E94FD380D
:10398000062F10E0102F0027016120E030E0D60163
:103990001496ED91FC91159741E150E06FEF8AEE9E
:1039A00091E00995C090EA01D090EB01F70164899C
:1039B00075896253710980E090E00E942C399B0167
:1039C000AC010E941A389B01AC0160E070E087E214
:1039D00093E40E9419380E94FD38062F10E0102F42
:1039E0000027006120E030E0D6011496ED91FC91B3
:1039F000159741E150E06FEF8AEE91E00995C09094
:103A0000EA01D090EB01F70164897589625371096D
:103A100080E090E00E942C3920E030E040E05FE35D
:103A20000E943B3A20E030E04AEE52E40E941A380D
:103A30000E94FD38062F10E0102F0027066120E0BD
:103A400030E0D6011496ED91FC91159741E150E0DC
:103A50006FEF8AEE91E00995C090EA01D090EB01FA
:103A6000F701648975896253710980E090E00E94D2
:103A70002C3920E030E040E05FE30E943B3A20E058
:103A800030E04AEE52E40E941A380E94FD38062FB8
:103A900010E0102F0027076120E030E0D6011496D7
:103AA000ED91FC91159741E150E06FEF8AEE91E0C6
:103AB0000995C090EA01D090EB01F70164897589FE
:103AC0006253710980E090E00E942C3920E030E0E0
:103AD00040E05FE30E943B3A9B01AC0160E070E094
:103AE00089E093E40E9419380E94FD38062F10E007
:103AF000102F0027036120E030E0D6011496ED91ED
:103B0000FC91159741E150E06FEF8AEE91E0099545
:103B1000C090EA01D090EB01F70164897589625386
:103B2000710980E090E00E942C3920E030E040E014
:103B30005FE30E943B3A9B01AC0160E070E089E0EA
:103B400093E40E9419380E94FD38062F10E0102FD0
:103B50000027026120E030E0D6011496ED91FC913F
:103B6000159741E150E06FEF8AEE91E00995C09022
:103B7000EA01D090EB01F7016489758962537109FC
:103B800080E090E00E942C399B01AC010E941A3821
:103B900020E030E04EEA52E40E941A380E94FD38DC
:103BA000062F10E0102F0027046120E030E0D6013E
:103BB0001496ED91FC91159741E150E06FEF8AEE7C
:103BC00091E00995C090EA01D090EB01F70164897A
:103BD00075896253710980E090E00E942C399B0145
:103BE000AC010E941A3820E030E04EEA52E40E9414
:103BF0001A380E94FD38062F10E0102F00270561AB
:103C000020E030E0D6011496ED91FC91159741E14A
:103C100050E06FEF8AEE91E00995E091EA01F091B2
:103C2000EB010480F581E02D08E110E020E030E0B8
:103C300041E150E06FEF8AEE91E00995F701848948
:103C400095898634910509F426CA01960C94491287
:103C5000873009F0A8C184899589009711F00C94E8
:103C60007211E091EA01F091EB010480F581E02D01
:103C700001E212E320E030E041E150E06FEF8AEE34
:103C800091E00995E091EA01F091EB010480F58162
:103C9000E02D00E21FE720E030E041E150E06FEF6F
:103CA0008AEE91E00995E091EA01F091EB01048040
:103CB000F581E02D06E212E320E030E041E150E042
:103CC0006FEF8AEE91E00995E091EA01F091EB0146
:103CD0000480F581E02D07E21FE720E030E041E1BC
:103CE00050E06FEF8AEE91E00995E091EA01F091E2
:103CF000EB010480F581E02D03E212E320E030E0E7
:103D000041E150E06FEF8AEE91E00995E091EA0120
:103D1000F091EB010480F581E02D02E21FE720E045
:103D200030E041E150E06FEF8AEE91E00995E091DB
:103D3000EA01F091EB010480F581E02D04E212E349
:103D400020E030E041E150E06FEF8AEE91E009952C
:103D5000E091EA01F091EB010480F581E02D05E2AC
:103D60001FE720E030E041E150E06FEF8AEE91E0A4
:103D70000995E091EA01F091EB010480F581E02DD5
:103D800008E212E320E030E041E150E06FEF8AEE1C
:103D900091E00995E091EA01F091EB010480F58151
:103DA000E02D09E21FE720E030E09FC0E091EA014A
:103DB000F091EB010480F581E02D01E11FEF20E09F
:103DC00030E041E150E06FEF8AEE91E00995E0913B
:103DD000EA01F091EB010480F581E02D06E11FEF8F
:103DE00020E030E041E150E06FEF8AEE91E009958C
:103DF000E091EA01F091EB010480F581E02D03E10F
:103E00001FEF20E030E041E150E06FEF8AEE91E0FB
:103E10000995E091EA01F091EB010480F581E02D34
:103E200004E11FEF20E030E041E150E06FEF8AEE67
:103E300091E00995E091EA01F091EB010480F581B0
:103E4000E02D08E11FEF20E030E04FC0E091EA01F3
:103E5000F091EB010480F581E02D01E110E020E01C
:103E600030E041E150E06FEF8AEE91E00995E0919A
:103E7000EA01F091EB010480F581E02D06E110E00C
:103E800020E030E041E150E06FEF8AEE91E00995EB
:103E9000E091EA01F091EB010480F581E02D03E16E
:103EA00010E020E030E041E150E06FEF8AEE91E079
:103EB0000995E091EA01F091EB010480F581E02D94
:103EC00004E110E020E030E041E150E06FEF8AEEE5
:103ED00091E00995E091EA01F091EB010480F58110
:103EE000E02D08E110E020E030E041E150E06FEF2C
:103EF0008AEE91E009950C94DD118039914011F022
:103F00000C943D12E091EA01F091EB010480F581FF
:103F1000E02D00E21FE720E030E041E150E06FEFEC
:103F20008AEE91E00995E091EA01F091EB010480BD
:103F3000F581E02D07E21FE720E030E041E150E0AD
:103F40006FEF8AEE91E00995E091EA01F091EB01C3
:103F50000480F581E02D02E21FE720E030E041E13E
:103F600050E06FEF8AEE91E00995E091EA01F0915F
:103F7000EB010480F581E02D05E21FE720E030E051
:103F800041E150E06FEF8AEE91E00995E091EA019E
:103F9000F091EB010480F581E02D09E21FE720E0BC
:103FA00030E00C943712883011F00C944B122489B5
:103FB000358946892F30310530F12F30310531F107
:103FC000842F90E0BC016D5D7F4F26173707F1F01D
:103FD000B9016051710962307105D0F0BC016F5DAB
:103FE0007F4F26173707A1F06F5F7F4F26173707E0
:103FF00079F02231310578F080968217930758F0D6
:104000009FEF02E00AC090E004E007C09FEF04C009
:104010009FEF01E002C090E000E050E0BA016C5D6B
:104020007F4F2617370729F06C5E7F4F261737071B
:1040300011F490E000E0BA016B5D7F4F261737075F
:1040400079F06F5F7F4F2617370751F0605F7F4F22
:104050002617370729F06F5F7F4F2617370711F4B0
:1040600090E001E0BA01695D7F4F2617370738F00D
:104070004B5C5F4F4217530710F090E002E0B0E155
:104080000B9F80011124892F90E0982F88276801C9
:10409000C82AD92AE091EA01F091EB01860101607A
:1040A00020E030E00480F581E02D41E150E06FEF49
:1040B0008AEE91E00995E091EA01F091EB01860129
:1040C000066020E030E00480F581E02D41E150E021
:1040D0006FEF8AEE91E00995E091EA01F091EB0132
:1040E0008601036020E030E00480F581E02D41E1AD
:1040F00050E06FEF8AEE91E00995E091EA01F091CE
:10410000EB018601046020E030E00480F581E02DC1
:1041100041E150E06FEF8AEE91E00995E091EA010C
:10412000F091EB018601086020E030E00480F58129
:10413000E02D41E150E06FEF8AEE91E00995F70143
:10414000848995898933910541F48FE090E0958BBE
:10415000848B81E0868B0C944B120196D701559687
:104160009C938E9354970C944B1287819085A185D4
:10417000B28589839A83AB83BC838B8183FF03C021
:104180009389913071F182FF03C09389923049F194
:1041900081FF03C09389933021F180FF03C083899D
:1041A0008430F9F0898186FF03C093899530C9F086
:1041B00085FF03C093899630A1F084FF03C09389E3
:1041C000973079F087FF10C08389883069F409C07F
:1041D0008CE19DE00BC08CEC9DE29583848380E0B4
:1041E00008C086E090E102C080E59DE0958384836D
:1041F00088E00F900F900F900F90DF91CF911F915B
:104200000F91FF90EF90DF90CF90089587E00E948C
:10421000773165EA79E08DE293E00E946B316DE5DC
:1042200076E080E093E00E946B316DE379E080ED11
:1042300092E00E946B3165E279E083E592E00E94B2
:104240006B3168E879E087E292E00E946B3168EFB9
:1042500071E28AEE91E00E946B3126E040E855E27F
:1042600060E070E083E593E00E94602768EC79E00D
:1042700083E593E00E94E12862EC79E083E593E036
:104280000C942A290C9410321F920F920FB60F92A1
:1042900011242F933F934F935F936F937F938F934B
:1042A0009F93AF93BF93EF93FF9380E00E94AE3153
:1042B000FF91EF91BF91AF919F918F917F916F91FE
:1042C0005F914F913F912F910F900FBE0F901F90D4
:1042D000189592E09093B00087E08093B100E6EBF0
:1042E000F0E080818F7D8083909370001092B20007
:1042F0008BE98093B300089581E083BF789488951B
:1043000013BE0895F8940C9400000895AF92BF92E4
:10431000CF92DF92EF92FF920F931F93CF93DF9391
:10432000EC0180E290E00E949B289C01205E3F4FC0
:10433000FC0111921192E217F307D9F79B838A834C
:104340003EE1A32EB12C0EE110E0CC80DD80EE80AA
:10435000FF800A2C04C0CC0CDD1CEE1CFF1C0A9450
:10436000D2F78EE1F694E794D794C7948A95D1F763
:10437000C6010196880F991F880F991F0E949B28DC
:10438000FC01119211921192119221E0C21AD108EE
:10439000C0F798012A193B09EA81FB81E20FF31F5C
:1043A00080839183B2E0AB1AB1082EEFA2162FEFF3
:1043B000B20659F688819981DC01ED91FC9101905A
:1043C000F081E02D099588819981DC01ED91FC91C6
:1043D0006A817B810680F781E02DDF91CF911F916B
:1043E0000F91FF90EF90DF90CF90BF90AF90099426
:1043F000CF93DF93EC0128EC30E048EC50E060E034
:104400000E94F63184E493E00E9486216DEA79E00F
:1044100083E593E00E942A298FE593E29D838C83B4
:1044200088E0DF91CF9108952F923F924F925F9253
:104430006F927F928F929F92AF92BF92CF92DF92B4
:10444000EF92FF920F931F93CF93DF9300D000D092
:10445000CDB7DEB76C01162F042F862F90E02FE02A
:1044600030E0281B390B220F331FD60114964D91D3
:104470005D916D917C91179704C0440F551F661F85
:10448000771F2A95D2F7EEE1769567955795479570
:10449000EA95D1F742305105C1F14330510509F495
:1044A00075C04130510509F0F3C0880F991F12966D
:1044B000ED91FC911397E80FF91FE080F180AD902A
:1044C000BC90F501C080D180602F70E080E090E06A
:1044D0000E942E39D70114962D913D914D915C91FA
:1044E00017970E943B3AF701208131814281538125
:1044F0000E941A380E94FD38D6011496ED91FC9165
:104500001597AB01612FC501ACC0880F991FD6016B
:104510001296ED91FC911397E80FF91FE080F1805E
:10452000602F70E080E090E00E942C394B015C012C
:10453000F60120803180D101CD90DC90602F70E0B9
:1045400080E090E00E942E39F70124813581468178
:1045500057810E943B3AD7012D913D914D915C913D
:104560000E941A382B013C01A5019401C501B40138
:104570000E943B3AF70120853185428553850E9490
:104580003B3A9B01AC01C301B2015FC0880F991F88
:10459000D6011296ED91FC911397E80FF91FE08078
:1045A000F180602F70E080E090E00E942C394B0198
:1045B0005C0120E030E040E450E40E94A83A2B0186
:1045C0003C01F60120803180D101CD90DC90602F3C
:1045D00070E080E090E00E942E39F701248135815F
:1045E000468157810E943B3AD7012D913D914D91D3
:1045F0005C910E941A3869837A838B839C83A5011E
:104600009401C501B4010E943B3AF7012085318530
:10461000428553850E943B3A9B01AC0169817A81B6
:104620008B819C810E941A384B015C01D7011C963A
:104630002D913D914D915C911F97C301B2010E9454
:104640003B3A9B01AC01C501B4010E941A380E949B
:10465000FD38D6011496ED91FC911597AB01612FB1
:10466000C1010F900F900F900F90DF91CF911F918C
:104670000F91FF90EF90DF90CF90BF90AF909F9001
:104680008F907F906F905F904F903F902F90099404
:104690000F900F900F900F90DF91CF911F910F917E
:1046A000FF90EF90DF90CF90BF90AF909F908F9052
:1046B0007F906F905F904F903F902F9008951F9341
:1046C000CF93DF93EC018E81843071F522E030E0EE
:1046D00042E050E060E0CE010E94F63110E04FE78A
:1046E000612F84E493E00E9414221F5F1A30B9F70F
:1046F000FE01B7969E012F5C3F4F8FE791E0DF01EF
:1047000054978C931A968C939193E217F307B9F709
:1047100065E979E083E593E00E942A298DE993E237
:104720009D838C8388E005C08CEC9DE29D838C8307
:1047300080E0DF91CF911F910895DF92EF92FF9279
:104740000F931F93CF93DF9300D0CDB7DEB7FC015B
:1047500086818F3019F170F4813009F4DAC0843029
:1047600009F0D1C08F017F0187E2E80EF11CD12C46
:1047700090E06BC0803171F1813109F0C4C0878154
:1047800090859A83982F9F70DF01A90FB11D8295A4
:104790008F7097968C9397978A8135C08781908583
:1047A00089839A83982F9F70DF01A90FB11D82958D
:1047B0008F7097968C93979753962C9153978A81E5
:1047C00090E0820F911D8F3F9105E9F0E4F08FEFAB
:1047D00090E019C08781908589839A83982F9F7074
:1047E000DF01A90FB11D82958F7097968C939797D3
:1047F00053968C91539790E02A81821B910997FFE1
:1048000002C080E090E05D968C938DE993E277C0E2
:10481000D7014C91281728F130E0DB01A40FB11D1E
:10482000AD012A173B0734F14617570739F040838B
:104830006D2D84E493E00E94142291E0D394BFEFA5
:10484000EB1AFB0AEAE0DE16B9F0F70174978081F3
:10485000682F70E0D7011A972C918217C8F2281799
:1048600068F7D7018C9130E0AB01481B5109421722
:104870005307D4F6A901D8CF91113EC0D801D196E3
:104880008D919C91D2976AE070E00E94243C892B24
:1048900049F57B01B1E0EB1AF10862E371E083E5D1
:1048A00093E00E9413294AE050E0B70183E593E0CA
:1048B0000E94172AF801EE0DFF1D4AE050E06389BF
:1048C00083E593E00E94542A62E371E083E593E07C
:1048D0000E941329F80181A992A98436910511F447
:1048E00012AA11AAD801D1968D919C91D2970196C6
:1048F000D2969C938E93D1978DE993E2F80195839C
:10490000848388E007C08CEC9DE29583848380E0FB
:1049100001C083E00F900F90DF91CF911F910F9115
:10492000FF90EF90DF900895CF93DF93CCE4D3E036
:1049300088E391E09983888360E48EE493E00E94A9
:10494000D532E4E4F3E0D183C0838DED97E7A7E0AF
:10495000B0E084839583A683B783DF91CF910895D8
:10496000CF93DF938091460390914703892BE1F029
:10497000C0E0D0E0E0914603F0914703EC0FFD1F4B
:1049800080819181009711F00E949F282296C03269
:10499000D10581F78091460390914703009721F05C
:1049A000DF91CF910C949F28DF91CF9108954F9282
:1049B0005F926F927F92AF92BF92CF92DF92EF920F
:1049C000FF920F931F93CF93DF9300D000D0CDB70A
:1049D000DEB7FC018681813049F0883009F092C150
:1049E00085EB9DE09583848388E091C18F01138AD4
:1049F000148A158A168A61E083E00E94F82C84E10B
:104A000090E00E944D2C60E083E00E94F82CC12CC5
:104A1000D12C76018FE1A82EB12C412C512C3201E2
:104A2000439460E084E00E94F82C82E090E00E94D1
:104A30004D2C82E00E94282D892B71F0D301C201F8
:104A40000A2C04C0880F991FAA1FBB1F0A94D2F713
:104A5000C82AD92AEA2AFB2A61E084E00E94F82CBD
:104A6000B1E0AB1AB108E8F6D8015396CD92DD92C9
:104A7000ED92FC925697C982DA82EB82FC82FB802F
:104A8000F6FE06C067ED74E083E593E00E942A29F4
:104A9000F5FE06C067EB74E083E593E00E942A29E7
:104AA000F4FE06C062E974E083E593E00E942A29DF
:104AB000F2FE06C060E774E083E593E00E942A29D5
:104AC000F3FE06C06EE474E083E593E00E942A29B9
:104AD000F7FE06C064E274E083E593E00E942A29B1
:104AE000F1FE06C062E074E083E593E00E942A29AB
:104AF000F0FE06C060EE73E083E593E00E942A2991
:104B0000FC80F6FE06C062EC73E083E593E00E9451
:104B10002A29F4FE06C062EA73E083E593E00E946E
:104B20002A29F5FE06C063E873E083E593E00E945E
:104B30002A29F2FE06C064E673E083E593E00E9452
:104B40002A29F7FE06C063E473E083E593E00E9440
:104B50002A29F3FE06C065E273E083E593E00E9434
:104B60002A29F1FE06C065E073E083E593E00E9428
:104B70002A29F0FE06C064EE72E083E593E00E940D
:104B80002A29FA80F6FE06C065EC72E083E593E020
:104B90000E942A29F4FE06C064EA72E083E593E0ED
:104BA0000E942A29F5FE06C064E872E083E593E0DE
:104BB0000E942A29F7FE06C062E672E083E593E0D0
:104BC0000E942A29F3FE06C063E472E083E593E0C5
:104BD0000E942A29F2FE06C063E272E083E593E0B8
:104BE0000E942A29F0FE06C061E072E083E593E0AE
:104BF0000E942A29F1FE06C060EE71E083E593E091
:104C00000E942A29F980F7FE06C06EEB71E083E569
:104C100093E00E942A29F1FE06C064EA71E083E570
:104C200093E00E942A29F3FE06C068E871E083E55C
:104C300093E00E942A29F0FE06C06DE671E083E54C
:104C400093E00E942A29F6FE06C06BE471E083E53A
:104C500093E00E942A29F5FE06C069E271E083E52F
:104C600093E00E942A29F4FE06C067E071E083E524
:104C700093E00E942A29F2FE06C06AEE70E083E506
:104C800093E00E942A2983E593E00E949A26181651
:104C9000190614F583E593E00E94B4269C01205385
:104CA000310920323105C0F481E090E0A0E0B0E0AD
:104CB00004C0880F991FAA1FBB1F2A95D2F7F801BD
:104CC0004389548965897689842B952BA62BB72B2C
:104CD000838B948BA58BB68BE0912D03F0912E03E3
:104CE000D80153960D911D912D913C9156970480BA
:104CF000F581E02D48E050E06FEF8DE293E00995FB
:104D000083E005C08CEC9DE29583848380E00F9066
:104D10000F900F900F90DF91CF911F910F91FF9007
:104D2000EF90DF90CF90BF90AF907F906F905F90AB
:104D30004F900895FC01918D228D892F90E0805C29
:104D40009F4F821B91098F7399270895FC01918DC4
:104D5000828D981731F0828DE80FF11D858D90E0DE
:104D600008958FEF9FEF0895FC01918D828D981724
:104D700061F0828DDF01A80FB11D5D968C91928D3F
:104D80009F5F9F73928F90E008958FEF9FEF08953C
:104D90008EE498E2892B49F080E090E0892B29F09D
:104DA0000E944E2881110C9400000895FC01848D0E
:104DB000DF01A80FB11DA35ABF4F2C91848D90E045
:104DC00001968F739927848FA689B7892C93A08920
:104DD000B1898C9180648C93938D848D981306C0D7
:104DE0000288F389E02D80818F7D80830895CF93A1
:104DF000DF93EC01888D8823C9F0EA89FB898081E3
:104E000085FD05C0A889B9898C9186FD0FC00FB6B4
:104E100007FCF5CF808185FFF2CFA889B9898C91F5
:104E200085FFEDCFCE010E94D626E7CFDF91CF914F
:104E30000895EF92FF920F931F93CF93DF93EC01AE
:104E400081E0888F9B8D8C8D981305C0E889F98946
:104E5000808185FD24C0F62E0B8D10E00F5F1F4F63
:104E60000F731127E02E8C8DE8120CC00FB607FCD3
:104E7000FACFE889F989808185FFF5CFCE010E94BC
:104E8000D626F1CF8B8DFE01E80FF11DE35AFF4FBF
:104E9000F0820B8FEA89FB898081806207C0EE89EE
:104EA000FF896083E889F98980818064808381E05B
:104EB00090E0DF91CF911F910F91FF90EF900895B7
:104EC000CF92DF92EF92FF921F93CF93DF93EC018B
:104ED0006A017B01122FE889F98982E080834115FC
:104EE000514E61057105B1F060E079E08DE390E02D
:104EF000A70196010E94383CDA01C9010197A10976
:104F0000B109B695A79597958795AC01411580E1B4
:104F10005807A8F0E889F989108260E874E88EE102
:104F200090E0A70196010E94383CBA01A9014150C6
:104F30005109610971097695679557954795EC85F3
:104F4000FD855083EE85FF854083188EEC89FD89B1
:104F50001083EA89FB89808180618083EA89FB89EB
:104F6000808188608083EA89FB8980818068808372
:104F7000EA89FB8980818F7D8083DF91CF911F91AA
:104F8000FF90EF90DF90CF900895CF93DF93EC01E7
:104F9000E881F9810284F385E02D0995EA89FB898E
:104FA00080818F7E8083EA89FB898081877F8083EF
:104FB000EA89FB8980818F778083EA89FB898081F8
:104FC0008F7D80838A8D898FDF91CF910895FC0139
:104FD000538D448D252F30E0842F90E0821B930B5E
:104FE000541710F0CF960895019708951F920F92CD
:104FF0000FB60F9211242F938F939F93EF93FF93EC
:10500000E0916303F09164038081E0916903F09182
:105010006A0382FD12C0908180916C038F5F8F7351
:1050200020916D03821751F0E0916C03F0E0ED5A8E
:10503000FC4F958F80936C0301C08081FF91EF91AD
:105040009F918F912F910F900FBE0F901F901895E9
:105050001F920F920FB60F9211242F933F934F93ED
:105060005F936F937F938F939F93AF93BF93EF93D0
:10507000FF9383E593E00E94D626FF91EF91BF91C5
:10508000AF919F918F917F916F915F914F913F91E0
:105090002F910F900FBE0F901F90189583E593E00E
:1050A0000E949A2621E0892B09F420E0822F08959E
:1050B000E3E5F3E01382128288EE93E0A0E0B0E033
:1050C00084839583A683B78386E491E0918380836C
:1050D00085EC90E09587848784EC90E097878687BD
:1050E00080EC90E0918B808B81EC90E0938B828BB5
:1050F00082EC90E0958B848B86EC90E0978B868B8E
:10510000118E128E138E148E089580E090E0089513
:10511000089508950E94582C0E9488280E94062114
:10512000C8ECD6E20E9442212097E1F30E94C826F3
:10513000F9CF0C94603C0C94603C0C94F53C0C94BE
:10514000F53CCF92DF92EF92FF920F931F93CF9394
:10515000DF936C017A018B01C0E0D0E0CE15DF0552
:1051600089F0D8016D918D01D601ED91FC910190EE
:10517000F081E02DC6010995892B11F47E0102C052
:105180002196ECCFC701DF91CF911F910F91FF9036
:10519000EF90DF90CF9008956115710579F0FB01D4
:1051A00001900020E9F73197AF01461B570BDC0156
:1051B000ED91FC910280F381E02D099480E090E074
:1051C0000895EF92FF920F931F93CF93DF938C017B
:1051D0007B01C0E0D0E0F701EC0FFD1F6491662376
:1051E00061F0D801ED91FC910190F081E02DC801B2
:1051F0000995892B11F02196EECFCE01DF91CF9149
:105200001F910F91FF90EF900895DC01ED91FC91BB
:10521000DB0114964D915C9115976D917C91028004
:10522000F381E02D09940C94CC28DC01ED91FC91E4
:105230000190F081E02D0994DB01ED91FC91119733
:105240000190F081E02DBC01CD01099462E571E08F
:105250000C94CC280F931F93CF93DF93EC010E9403
:10526000E1288C01CE010E942629800F911FDF9139
:10527000CF911F910F9108950F931F93CF93DF93B9
:10528000EC010E9405298C01CE010E942629800F85
:10529000911FDF91CF911F910F9108950F931F934D
:1052A000CF93DF93EC010E94CC288C01CE010E94A9
:1052B0002629800F911FDF91CF911F910F910895A3
:1052C0000F931F93CF93DF93EC010E9415298C015C
:1052D000CE010E942629800F911FDF91CF911F914F
:1052E0000F9108950F931F93CF93DF93EC010E94CA
:1052F0001C298C01CE010E942629800F911FDF916D
:10530000CF911F910F9108954F925F926F927F926C
:10531000EF92FF920F931F93CF93DF93CDB7DEB73A
:10532000A1970FB6F894DEBF0FBECDBF7C01FA0186
:10533000CB0119A2223008F42AE08E010F5D1F4F25
:10534000422E512C612C712CBF01A30192010E94AD
:10535000383CF901CA01015011096A3014F4605D4A
:1053600001C0695CD8016C93232B242B252B61F79A
:10537000B801C7010E94CC28A1960FB6F894DEBFF1
:105380000FBECDBFDF91CF911F910F91FF90EF9096
:105390007F906F905F904F900895CF92DF92EF9241
:1053A000FF920F931F93CF93DF93EC016A017B0170
:1053B0002115310579F4E881F9810190F081E02D22
:1053C000642FDF91CF911F910F91FF90EF90DF90AD
:1053D000CF9009942A303105E9F477FF1AC06DE2C5
:1053E0000E9415298C0144275527BA014C195D09E3
:1053F0006E097F092AE0CE010E948429800F911F47
:10540000DF91CF911F910F91FF90EF90DF90CF90A0
:1054100008952AE0B701A601CE01DF91CF911F9137
:105420000F91FF90EF90DF90CF900C9484299A0118
:10543000AB01770F660B770B0C94CD290F931F935D
:10544000CF93DF93EC019A01AB01770F660B770BDB
:105450000E94CD298C01CE010E942629800F911F28
:10546000DF91CF911F910F9108950F931F93CF93C9
:10547000DF93EC010E94CD298C01CE010E942629E8
:10548000800F911FDF91CF911F910F9108952115EA
:10549000310541F4DC01ED91FC910190F081E02DAA
:1054A000642F09940C9484299A01462F50E060E0FF
:1054B00070E00C94472A0F931F93CF93DF93EC0176
:1054C0009A01462F50E060E070E00E94472A8C016C
:1054D000CE010E942629800F911FDF91CF911F914D
:1054E0000F9108959A01AB0160E070E00C94472A97
:1054F0000F931F93CF93DF93EC019A01AB0160E010
:1055000070E00E94472A8C01CE010E942629800F5C
:10551000911FDF91CF911F910F9108950F931F93CA
:10552000CF93DF93EC010E94472A8C01CE010E94A9
:105530002629800F911FDF91CF911F910F91089520
:105540004F925F926F927F928F929F92AF92BF9293
:10555000CF92DF92EF92FF92CF93DF93EC016A013B
:105560007B01B22E9A01AB01C701B6010E94F83A45
:10557000882319F065E571E027C026013701E8941A
:1055800077F82FEF3FEF4FE75FE7C301B2010E94CB
:10559000F83A81110DC02FEF3FEF4FE75FE7C301EE
:1055A000B2010E94863818161CF469E571E00CC03F
:1055B0002FEF3FEF4FE75FE4C701B6010E94363A95
:1055C00018169CF46DE571E0CE01DF91CF91FF904C
:1055D000EF90DF90CF90BF90AF909F908F907F9093
:1055E0006F905F904F900C94CC282FEF3FEF4FE7D8
:1055F0005FECC701B6010E94863887FDE3CF20E04B
:1056000030E0A901C701B6010E94863887FF0AC0B1
:105610006DE2CE010E9415294C01F7FAF094F7F8DB
:10562000F09402C0812C912CA12C60E070E080E00D
:105630009FE3AB1441F020E030E040E251E40E94EF
:105640008B38A394F6CF9B01AC01C701B6010E9431
:105650001A382B013C010E94FD386B017C010E942D
:105660002C399B01AC01C301B2010E9419382B01F6
:105670003C012AE0B701A601CE010E9484297C01E9
:10568000E80CF91CBB2031F06EE2CE010E94152916
:10569000E80EF91EDB2CDD2029F120E030E040E2AD
:1056A00051E4C301B2010E943B3A2B013C010E942C
:1056B000FD384B01A12CB12C2AE0B501A401CE018B
:1056C0000E948429E80EF91EC501B4010E942C39FC
:1056D0009B01AC01C301B2010E9419382B013C01AE
:1056E000DA94D9CFC701DF91CF91FF90EF90DF908F
:1056F000CF90BF90AF909F908F907F906F905F9072
:105700004F9008950C94A02A0F931F93CF93DF938B
:10571000EC010E94A02A8C01CE010E942629800F54
:10572000911FDF91CF911F910F9108951F920F92BA
:105730000FB60F9211242F933F938F939F93AF93A4
:10574000BF938091F1039091F203A091F303B09184
:10575000F4033091F00323E0230F2D3720F401965A
:10576000A11DB11D05C026E8230F0296A11DB11D84
:105770002093F0038093F1039093F203A093F3033B
:10578000B093F4038091F5039091F603A091F70391
:10579000B091F8030196A11DB11D8093F50390937C
:1057A000F603A093F703B093F803BF91AF919F91D5
:1057B0008F913F912F910F900FBE0F901F901895D2
:1057C0002FB7F8946091F1037091F2038091F30385
:1057D0009091F4032FBF08953FB7F8948091F5039B
:1057E0009091F603A091F703B091F80326B5A89B1A
:1057F00005C02F3F19F00196A11DB11D3FBFBA2F63
:10580000A92F982F8827820F911DA11DB11DBC01C2
:10581000CD0142E0660F771F881F991F4A95D1F787
:1058200008958F929F92AF92BF92CF92DF92EF92A4
:10583000FF926B017C010E94EC2B4B015C01C114B7
:10584000D104E104F10401F10E94CB2D0E94EC2B64
:10585000DC01CB0188199909AA09BB09883E93404C
:10586000A105B10560F321E0C21AD108E108F108F1
:1058700088EE880E83E0981EA11CB11CC114D104CF
:10588000E104F10419F7DBCFFF90EF90DF90CF90A8
:10589000BF90AF909F908F9008958230910538F01F
:1058A000880F991F880F991F05970197F1F70895A1
:1058B000789484B5826084BD84B5816084BD85B5EB
:1058C000826085BD85B5816085BDEEE6F0E08081B2
:1058D00081608083E1E8F0E01082808182608083D3
:1058E000808181608083E0E8F0E080818160808356
:1058F000E1EBF0E0808184608083E0EBF0E0808188
:1059000081608083EAE7F0E0808184608083808129
:1059100082608083808181608083808180688083D1
:105920001092C1000895833081F028F4813099F0FD
:105930008230A1F008958730A9F08830B9F0843022
:10594000D1F4809180008F7D03C0809180008F779B
:1059500080938000089584B58F7702C084B58F7DD1
:1059600084BD08958091B0008F7703C08091B0000E
:105970008F7D8093B0000895CF93DF9390E0FC017A
:10598000E05FF54F2491FC01EC5DF54F8491882395
:1059900061F190E0880F991FFC01E45BF54FC59120
:1059A000D491FC01EE5BF54FA591B491611109C052
:1059B0009FB7F8948881209582238883EC912E23C9
:1059C0000BC0623061F49FB7F8943881822F8095C4
:1059D00083238883EC912E2B2C939FBF06C08FB717
:1059E000F894E8812E2B28838FBFDF91CF91089503
:1059F0001F93CF93DF93282F30E0F901E450F64F47
:105A00008491F901E05FF54FD491F901EC5DF54F18
:105A1000C491CC23C9F0162F81110E94932CEC2F36
:105A2000F0E0EE0FFF1FEE5BF54FA591B4918FB73D
:105A3000F894111105C09C91ED2FE095E92302C067
:105A4000EC91ED2BEC938FBFDF91CF911F910895D7
:105A5000CF93DF93282F30E0F901E450F64F849183
:105A6000F901E05FF54FD491F901EC5DF54FC49178
:105A7000CC2391F081110E94932CEC2FF0E0EE0FDB
:105A8000FF1FE85CF54FA591B491EC91ED2381E007
:105A900090E021F480E002C080E090E0DF91CF91BF
:105AA0000895CF92DF92EF92FF920F931F93CF93BF
:105AB000DF93F82ED62FE42E07E010E0C0E087E059
:105AC000C82ED12C61E08D2F0E94F82C8F2DE11073
:105AD0000AC00E94282D9601201B310B01C0880F9F
